{
  "contractName": "CookingBook",
  "abi": [
    {
      "constant": true,
      "inputs": [
        {
          "name": "",
          "type": "uint256"
        }
      ],
      "name": "recipes",
      "outputs": [
        {
          "name": "id",
          "type": "uint256"
        },
        {
          "name": "content",
          "type": "string"
        },
        {
          "name": "completed",
          "type": "bool"
        }
      ],
      "payable": false,
      "stateMutability": "view",
      "type": "function",
      "signature": "0x443c227c"
    },
    {
      "constant": true,
      "inputs": [],
      "name": "recipeCount",
      "outputs": [
        {
          "name": "",
          "type": "uint256"
        }
      ],
      "payable": false,
      "stateMutability": "view",
      "type": "function",
      "signature": "0x69cfdf74"
    },
    {
      "inputs": [],
      "payable": false,
      "stateMutability": "nonpayable",
      "type": "constructor",
      "signature": "constructor"
    },
    {
      "constant": false,
      "inputs": [
        {
          "name": "_content",
          "type": "string"
        }
      ],
      "name": "createBook",
      "outputs": [],
      "payable": false,
      "stateMutability": "nonpayable",
      "type": "function",
      "signature": "0xb9f72b7d"
    },
    {
      "constant": true,
      "inputs": [],
      "name": "hello",
      "outputs": [],
      "payable": false,
      "stateMutability": "pure",
      "type": "function",
      "signature": "0x19ff1d21"
    }
  ],
  "bytecode": "0x60806040526000805534801561001457600080fd5b506100626040805190810160405280600581526020017f5761746572000000000000000000000000000000000000000000000000000000815250610067640100000000026401000000009004565b61019f565b600080815480929190600101919050555060606040519081016040528060005481526020018281526020016000151581525060016000805481526020019081526020016000206000820151816000015560208201518160010190805190602001906100d39291906100fa565b5060408201518160020160006101000a81548160ff02191690831515021790555090505050565b828054600181600116156101000203166002900490600052602060002090601f016020900481019282601f1061013b57805160ff1916838001178555610169565b82800160010185558215610169579182015b8281111561016857825182559160200191906001019061014d565b5b509050610176919061017a565b5090565b61019c91905b80821115610198576000816000905550600101610180565b5090565b90565b610472806101ae6000396000f3fe608060405260043610610062576000357c0100000000000000000000000000000000000000000000000000000000900463ffffffff16806319ff1d2114610067578063443c227c1461007e57806369cfdf7414610144578063b9f72b7d1461016f575b600080fd5b34801561007357600080fd5b5061007c610237565b005b34801561008a57600080fd5b506100b7600480360360208110156100a157600080fd5b8101908080359060200190929190505050610239565b604051808481526020018060200183151515158152602001828103825284818151815260200191508051906020019080838360005b838110156101075780820151818401526020810190506100ec565b50505050905090810190601f1680156101345780820380516001836020036101000a031916815260200191505b5094505050505060405180910390f35b34801561015057600080fd5b50610159610308565b6040518082815260200191505060405180910390f35b34801561017b57600080fd5b506102356004803603602081101561019257600080fd5b81019080803590602001906401000000008111156101af57600080fd5b8201836020820111156101c157600080fd5b803590602001918460018302840111640100000000831117156101e357600080fd5b91908080601f016020809104026020016040519081016040528093929190818152602001838380828437600081840152601f19601f82011690508083019250505050505050919291929050505061030e565b005b565b6001602052806000526040600020600091509050806000015490806001018054600181600116156101000203166002900480601f0160208091040260200160405190810160405280929190818152602001828054600181600116156101000203166002900480156102eb5780601f106102c0576101008083540402835291602001916102eb565b820191906000526020600020905b8154815290600101906020018083116102ce57829003601f168201915b5050505050908060020160009054906101000a900460ff16905083565b60005481565b6000808154809291906001019190505550606060405190810160405280600054815260200182815260200160001515815250600160008054815260200190815260200160002060008201518160000155602082015181600101908051906020019061037a9291906103a1565b5060408201518160020160006101000a81548160ff02191690831515021790555090505050565b828054600181600116156101000203166002900490600052602060002090601f016020900481019282601f106103e257805160ff1916838001178555610410565b82800160010185558215610410579182015b8281111561040f5782518255916020019190600101906103f4565b5b50905061041d9190610421565b5090565b61044391905b8082111561043f576000816000905550600101610427565b5090565b9056fea165627a7a72305820041e4ba4140f4ab353ba997d99d458d092ae08fd0d9ca7698331bbb0728b1d490029",
  "source": "pragma solidity >=0.5.0 <=0.8.14;\r\n\r\ncontract CookingBook{\r\n    uint public recipeCount = 0;\r\n\r\n    struct Recipe{\r\n        uint id;\r\n        string content;\r\n        bool completed;\r\n    }\r\n\r\n    mapping(uint => Recipe) public recipes;\r\n\r\n    constructor() public {\r\n        createBook(\"Water\");\r\n    }\r\n    function createBook(string memory _content) public {\r\n        recipeCount++;\r\n        recipes[recipeCount] = Recipe(recipeCount, _content, false);\r\n    }\r\n    function hello() pure public {\r\n        \r\n    }\r\n\r\n    \r\n}",
  "sourcePath": "C:/xampp/htdocs/eth-cooking-recipe/contracts/CookingBook.sol",
  "compiler": {
    "name": "solc",
    "version": "0.5.0+commit.1d4f565a.Emscripten.clang"
  },
  "schemaVersion": "3.0.1",
  "updatedAt": "2022-06-26T19:23:12.579Z",
  "devdoc": {
    "methods": {}
  },
  "userdoc": {
    "methods": {}
  }
}