{
  "contractName": "CookingBook",
  "abi": [
    {
      "constant": true,
      "inputs": [],
      "name": "recipeCount",
      "outputs": [
        {
          "name": "",
          "type": "uint256"
        }
      ],
      "payable": false,
      "stateMutability": "view",
      "type": "function",
      "signature": "0x69cfdf74"
    }
  ],
  "bytecode": "0x608060405260008055348015601357600080fd5b50609e806100226000396000f3fe608060405260043610603f576000357c0100000000000000000000000000000000000000000000000000000000900463ffffffff16806369cfdf74146044575b600080fd5b348015604f57600080fd5b506056606c565b6040518082815260200191505060405180910390f35b6000548156fea165627a7a723058203fb92c37a253fda4abe400aa53599e7cfaa438ad281a91cfa775f9284a26dca50029",
  "source": "pragma solidity >=0.5.0 <=0.8.14;\r\n\r\ncontract CookingBook{\r\n    uint public recipeCount = 0;\r\n}",
  "sourcePath": "C:/xampp/htdocs/eth-cooking-recipe/contracts/CookingBook.sol",
  "compiler": {
    "name": "solc",
    "version": "0.5.0+commit.1d4f565a.Emscripten.clang"
  },
  "schemaVersion": "3.0.1",
  "updatedAt": "2022-05-30T03:52:32.101Z",
  "devdoc": {
    "methods": {}
  },
  "userdoc": {
    "methods": {}
  }
}